{
  "contractName": "Faucet",
  "abi": [
    {
      "inputs": [],
      "name": "numberOfFunders",
      "outputs": [
        {
          "internalType": "uint256",
          "name": "",
          "type": "uint256"
        }
      ],
      "stateMutability": "view",
      "type": "function",
      "constant": true
    },
    {
      "inputs": [],
      "name": "owner",
      "outputs": [
        {
          "internalType": "address",
          "name": "",
          "type": "address"
        }
      ],
      "stateMutability": "view",
      "type": "function",
      "constant": true
    },
    {
      "inputs": [],
      "name": "test5",
      "outputs": [
        {
          "internalType": "uint256",
          "name": "",
          "type": "uint256"
        }
      ],
      "stateMutability": "pure",
      "type": "function",
      "constant": true
    },
    {
      "inputs": [],
      "name": "testNum",
      "outputs": [
        {
          "internalType": "uint256",
          "name": "",
          "type": "uint256"
        }
      ],
      "stateMutability": "view",
      "type": "function",
      "constant": true
    },
    {
      "stateMutability": "payable",
      "type": "receive",
      "payable": true
    },
    {
      "inputs": [
        {
          "internalType": "address",
          "name": "newOwner",
          "type": "address"
        }
      ],
      "name": "transferOwnership",
      "outputs": [],
      "stateMutability": "nonpayable",
      "type": "function"
    },
    {
      "inputs": [],
      "name": "emitLog",
      "outputs": [
        {
          "internalType": "bytes32",
          "name": "",
          "type": "bytes32"
        }
      ],
      "stateMutability": "pure",
      "type": "function",
      "constant": true
    },
    {
      "inputs": [],
      "name": "addFunds",
      "outputs": [],
      "stateMutability": "payable",
      "type": "function",
      "payable": true
    },
    {
      "inputs": [],
      "name": "test1",
      "outputs": [],
      "stateMutability": "nonpayable",
      "type": "function"
    },
    {
      "inputs": [],
      "name": "test2",
      "outputs": [],
      "stateMutability": "nonpayable",
      "type": "function"
    },
    {
      "inputs": [
        {
          "internalType": "uint256",
          "name": "withdrawAmount",
          "type": "uint256"
        }
      ],
      "name": "withdraw",
      "outputs": [],
      "stateMutability": "nonpayable",
      "type": "function"
    },
    {
      "inputs": [],
      "name": "getAllFunders",
      "outputs": [
        {
          "internalType": "address[]",
          "name": "",
          "type": "address[]"
        }
      ],
      "stateMutability": "view",
      "type": "function",
      "constant": true
    },
    {
      "inputs": [
        {
          "internalType": "uint8",
          "name": "index",
          "type": "uint8"
        }
      ],
      "name": "getFunderAtIndex",
      "outputs": [
        {
          "internalType": "address",
          "name": "",
          "type": "address"
        }
      ],
      "stateMutability": "view",
      "type": "function",
      "constant": true
    }
  ],
  "bytecode": "0x608060405234801561001057600080fd5b50336000806101000a81548173ffffffffffffffffffffffffffffffffffffffff021916908373ffffffffffffffffffffffffffffffffffffffff1602179055506103e8600181905550610cb9806100696000396000f3fe6080604052600436106100ab5760003560e01c80638da5cb5b116100645780638da5cb5b146101a1578063a26759cb146101cc578063ae28f1ed146101d6578063dc79a7fc14610201578063f2fde38b1461022c578063f42c13bf14610255576100b2565b80630a93cf33146100b75780631ad7be82146100f45780632e1a7d4d1461011f57806366e41cb7146101485780636b59084d1461015f5780636fbbb55d14610176576100b2565b366100b257005b600080fd5b3480156100c357600080fd5b506100de60048036038101906100d9919061081c565b610280565b6040516100eb919061088a565b60405180910390f35b34801561010057600080fd5b506101096102c0565b60405161011691906108be565b60405180910390f35b34801561012b57600080fd5b5061014660048036038101906101419190610905565b6102d2565b005b34801561015457600080fd5b5061015d610369565b005b34801561016b57600080fd5b506101746103f9565b005b34801561018257600080fd5b5061018b610489565b60405161019891906109f0565b60405180910390f35b3480156101ad57600080fd5b506101b6610583565b6040516101c3919061088a565b60405180910390f35b6101d46105a7565b005b3480156101e257600080fd5b506101eb6106d0565b6040516101f891906108be565b60405180910390f35b34801561020d57600080fd5b506102166106d6565b60405161022391906108be565b60405180910390f35b34801561023857600080fd5b50610253600480360381019061024e9190610a3e565b6106dc565b005b34801561026157600080fd5b5061026a6107ad565b6040516102779190610a84565b60405180910390f35b6000600460008360ff16815260200190815260200160002060009054906101000a900473ffffffffffffffffffffffffffffffffffffffff169050919050565b60006102ca6107d5565b50600a905090565b8067016345785d8a000081111561031e576040517f08c379a000000000000000000000000000000000000000000000000000000000815260040161031590610b22565b60405180910390fd5b3373ffffffffffffffffffffffffffffffffffffffff166108fc839081150290604051600060405180830381858888f19350505050158015610364573d6000803e3d6000fd5b505050565b60008054906101000a900473ffffffffffffffffffffffffffffffffffffffff1673ffffffffffffffffffffffffffffffffffffffff163373ffffffffffffffffffffffffffffffffffffffff16146103f7576040517f08c379a00000000000000000000000000000000000000000000000000000000081526004016103ee90610b8e565b60405180910390fd5b565b60008054906101000a900473ffffffffffffffffffffffffffffffffffffffff1673ffffffffffffffffffffffffffffffffffffffff163373ffffffffffffffffffffffffffffffffffffffff1614610487576040517f08c379a000000000000000000000000000000000000000000000000000000000815260040161047e90610b8e565b60405180910390fd5b565b6060600060025467ffffffffffffffff8111156104a9576104a8610bae565b5b6040519080825280602002602001820160405280156104d75781602001602082028036833780820191505090505b50905060005b60025481101561057b576004600082815260200190815260200160002060009054906101000a900473ffffffffffffffffffffffffffffffffffffffff1682828151811061052e5761052d610bdd565b5b602002602001019073ffffffffffffffffffffffffffffffffffffffff16908173ffffffffffffffffffffffffffffffffffffffff1681525050808061057390610c3b565b9150506104dd565b508091505090565b60008054906101000a900473ffffffffffffffffffffffffffffffffffffffff1681565b60003390506105b46107d5565b50600360008273ffffffffffffffffffffffffffffffffffffffff1673ffffffffffffffffffffffffffffffffffffffff16815260200190815260200160002060009054906101000a900460ff166106cd5760006002600081548092919061061b90610c3b565b9190505590506001600360008473ffffffffffffffffffffffffffffffffffffffff1673ffffffffffffffffffffffffffffffffffffffff16815260200190815260200160002060006101000a81548160ff021916908315150217905550816004600083815260200190815260200160002060006101000a81548173ffffffffffffffffffffffffffffffffffffffff021916908373ffffffffffffffffffffffffffffffffffffffff160217905550505b50565b60015481565b60025481565b60008054906101000a900473ffffffffffffffffffffffffffffffffffffffff1673ffffffffffffffffffffffffffffffffffffffff163373ffffffffffffffffffffffffffffffffffffffff161461076a576040517f08c379a000000000000000000000000000000000000000000000000000000000815260040161076190610b8e565b60405180910390fd5b806000806101000a81548173ffffffffffffffffffffffffffffffffffffffff021916908373ffffffffffffffffffffffffffffffffffffffff16021790555050565b60007f48656c6c6f20576f726c64000000000000000000000000000000000000000000905090565b60006064905090565b600080fd5b600060ff82169050919050565b6107f9816107e3565b811461080457600080fd5b50565b600081359050610816816107f0565b92915050565b600060208284031215610832576108316107de565b5b600061084084828501610807565b91505092915050565b600073ffffffffffffffffffffffffffffffffffffffff82169050919050565b600061087482610849565b9050919050565b61088481610869565b82525050565b600060208201905061089f600083018461087b565b92915050565b6000819050919050565b6108b8816108a5565b82525050565b60006020820190506108d360008301846108af565b92915050565b6108e2816108a5565b81146108ed57600080fd5b50565b6000813590506108ff816108d9565b92915050565b60006020828403121561091b5761091a6107de565b5b6000610929848285016108f0565b91505092915050565b600081519050919050565b600082825260208201905092915050565b6000819050602082019050919050565b61096781610869565b82525050565b6000610979838361095e565b60208301905092915050565b6000602082019050919050565b600061099d82610932565b6109a7818561093d565b93506109b28361094e565b8060005b838110156109e35781516109ca888261096d565b97506109d583610985565b9250506001810190506109b6565b5085935050505092915050565b60006020820190508181036000830152610a0a8184610992565b905092915050565b610a1b81610869565b8114610a2657600080fd5b50565b600081359050610a3881610a12565b92915050565b600060208284031215610a5457610a536107de565b5b6000610a6284828501610a29565b91505092915050565b6000819050919050565b610a7e81610a6b565b82525050565b6000602082019050610a996000830184610a75565b92915050565b600082825260208201905092915050565b7f43616e6e6f74207769746864726177206d6f7265207468616e20302e3120657460008201527f6865722000000000000000000000000000000000000000000000000000000000602082015250565b6000610b0c602483610a9f565b9150610b1782610ab0565b604082019050919050565b60006020820190508181036000830152610b3b81610aff565b9050919050565b7f4f6e6c79206f776e65722063616e2063616c6c20746869732066756374696f6e600082015250565b6000610b78602083610a9f565b9150610b8382610b42565b602082019050919050565b60006020820190508181036000830152610ba781610b6b565b9050919050565b7f4e487b7100000000000000000000000000000000000000000000000000000000600052604160045260246000fd5b7f4e487b7100000000000000000000000000000000000000000000000000000000600052603260045260246000fd5b7f4e487b7100000000000000000000000000000000000000000000000000000000600052601160045260246000fd5b6000610c46826108a5565b91507fffffffffffffffffffffffffffffffffffffffffffffffffffffffffffffffff8203610c7857610c77610c0c565b5b60018201905091905056fea264697066735822122069badb2ab2bfc8555399d7f05d9d092b0323487bdc3b568e568b362865a6565b64736f6c63430008130033",
  "immutableReferences": {},
  "source": "// SPDX-License-Identifier: MIT\npragma solidity >=0.4.22 <0.9.0;\n\nimport \"./Owned.sol\";\nimport \"./Logger.sol\";\nimport \"./IFaucet.sol\";\n\ncontract Faucet is Owned, Logger, IFaucet {\n    uint public numberOfFunders;\n\n    mapping(address => bool) private funders;\n    mapping(uint => address) private lutFunders;\n\n    modifier limitWithdraw(uint withdrawAmount) {\n        require(\n            withdrawAmount <= 100000000000000000,\n            \"Cannot withdraw more than 0.1 ether \"\n        );\n        _;\n    }\n\n    //private -> can be accesible only within the smart contract\n    //internal -> can be accesible within smart contract and also derived from smart contract\n\n    function transferOwnership(address newOwner) external onlyOwner {\n        owner = newOwner;\n    }\n\n    function emitLog() public pure override returns (bytes32) {\n        return \"Hello World\";\n    }\n\n    receive() external payable {}\n\n    function addFunds() external payable override {\n        address funder = msg.sender;\n        test3();\n\n        if (!funders[funder]) {\n            uint index = numberOfFunders++;\n            //index start at zero only when declare varible\n            funders[funder] = true;\n            lutFunders[index] = funder;\n        }\n    }\n\n    function test1() external onlyOwner {\n        //someting managing stuff that only admin should have access to\n    }\n\n    function test2() external onlyOwner {\n        //someting managing stuff that only admin should have access to\n    }\n\n    function withdraw(\n        uint withdrawAmount\n    ) external override limitWithdraw(withdrawAmount) {\n        payable(msg.sender).transfer(withdrawAmount);\n    }\n\n    function getAllFunders() external view returns (address[] memory) {\n        address[] memory _funders = new address[](numberOfFunders);\n\n        for (uint i = 0; i < numberOfFunders; i++) {\n            _funders[i] = lutFunders[i];\n        }\n\n        return _funders;\n    }\n\n    function getFunderAtIndex(uint8 index) external view returns (address) {\n        return lutFunders[index];\n    }\n\n    //truffle console\n    //const instance = await Faucet.deployed()\n    //instance.addFunds({from:accounts[0], value:\"2000000000000000000\"})\n    //instance.addFunds({from:accounts[1], value:\"2000000000000000000\"})\n\n    //instance.withdraw(\"500000000000000000\", {from: accounts[1]})\n\n    //instance.getFunderAtIndex(0)\n    //instance.getAllFunders()\n\n    //e.g. > instance.addFunds({value:\"200000\", from: accounts[0})\n}\n",
  "sourcePath": "/Users/apple/Desktop/development/crypto-project/faucet/contracts/FaucetContract.sol",
  "compiler": {
    "name": "solc",
    "version": "0.8.19+commit.7dd6d404.Emscripten.clang"
  },
  "schemaVersion": "3.4.13",
  "updatedAt": "2023-07-05T22:45:01.851Z",
  "networkType": "ethereum",
  "devdoc": {
    "kind": "dev",
    "methods": {},
    "version": 1
  },
  "userdoc": {
    "kind": "user",
    "methods": {},
    "version": 1
  }
}